{
  "contractName": "Hash",
  "abi": [
    {
      "inputs": [
        {
          "internalType": "string",
          "name": "_key",
          "type": "string"
        }
      ],
      "name": "calHash",
      "outputs": [
        {
          "internalType": "bytes32",
          "name": "",
          "type": "bytes32"
        }
      ],
      "stateMutability": "view",
      "type": "function"
    }
  ],
  "bytecode": "0x608060405234801561001057600080fd5b506101b0806100206000396000f3fe608060405234801561001057600080fd5b506004361061002b5760003560e01c8063bfe634b614610030575b600080fd5b6100e96004803603602081101561004657600080fd5b810190808035906020019064010000000081111561006357600080fd5b82018360208201111561007557600080fd5b8035906020019184600183028401116401000000008311171561009757600080fd5b91908080601f016020809104026020016040519081016040528093929190818152602001838380828437600081840152601f19601f8201169050808301925050505050505091929192905050506100ff565b6040518082815260200191505060405180910390f35b6000816040516020018082805190602001908083835b602083106101385780518252602082019150602081019050602083039250610115565b6001836020036101000a03801982511681845116808217855250505050505090500191505060405160208183030381529060405280519060200120905091905056fea264697066735822122063ee31e83ae8fab3c9ab19be0633b4b92d5d1d8765f9117d7e6eb02e8a45a08764736f6c63430007040033",
  "immutableReferences": {},
  "source": "// SPDX-License-Identifier: UNLICENSED\r\n\r\npragma solidity ^0.7.4;\r\n\r\ncontract Hash {\r\n    function calHash(string memory _key) external view returns(bytes32) {\r\n        return keccak256(abi.encodePacked(_key));\r\n    }\r\n}\r\n\r\n//abracadabra 0xfd69353b27210d2567bc0ade61674bbc3fc01a558a61c2a0cb2b13d96f9387cd",
  "sourcePath": "C:\\atomicswap\\contracts\\Hash.sol",
  "compiler": {
    "name": "solc",
    "version": "0.7.4+commit.3f05b770.Emscripten.clang"
  },
  "schemaVersion": "3.4.3",
  "updatedAt": "2021-09-08T00:36:32.658Z",
  "devdoc": {
    "kind": "dev",
    "methods": {},
    "version": 1
  },
  "userdoc": {
    "kind": "user",
    "methods": {},
    "version": 1
  }
}