{
  "contractName": "HTLC",
  "abi": [
    {
      "inputs": [
        {
          "internalType": "address",
          "name": "_recipient",
          "type": "address"
        },
        {
          "internalType": "address",
          "name": "_token",
          "type": "address"
        },
        {
          "internalType": "uint256",
          "name": "_amount",
          "type": "uint256"
        }
      ],
      "stateMutability": "nonpayable",
      "type": "constructor"
    },
    {
      "inputs": [],
      "name": "amount",
      "outputs": [
        {
          "internalType": "uint256",
          "name": "",
          "type": "uint256"
        }
      ],
      "stateMutability": "view",
      "type": "function"
    },
    {
      "inputs": [],
      "name": "hash",
      "outputs": [
        {
          "internalType": "bytes32",
          "name": "",
          "type": "bytes32"
        }
      ],
      "stateMutability": "view",
      "type": "function"
    },
    {
      "inputs": [],
      "name": "lockTime",
      "outputs": [
        {
          "internalType": "uint256",
          "name": "",
          "type": "uint256"
        }
      ],
      "stateMutability": "view",
      "type": "function"
    },
    {
      "inputs": [],
      "name": "owner",
      "outputs": [
        {
          "internalType": "address",
          "name": "",
          "type": "address"
        }
      ],
      "stateMutability": "view",
      "type": "function"
    },
    {
      "inputs": [],
      "name": "recipient",
      "outputs": [
        {
          "internalType": "address",
          "name": "",
          "type": "address"
        }
      ],
      "stateMutability": "view",
      "type": "function"
    },
    {
      "inputs": [],
      "name": "secret",
      "outputs": [
        {
          "internalType": "string",
          "name": "",
          "type": "string"
        }
      ],
      "stateMutability": "view",
      "type": "function"
    },
    {
      "inputs": [],
      "name": "startTime",
      "outputs": [
        {
          "internalType": "uint256",
          "name": "",
          "type": "uint256"
        }
      ],
      "stateMutability": "view",
      "type": "function"
    },
    {
      "inputs": [],
      "name": "token",
      "outputs": [
        {
          "internalType": "contract IERC20",
          "name": "",
          "type": "address"
        }
      ],
      "stateMutability": "view",
      "type": "function"
    },
    {
      "inputs": [],
      "name": "fund",
      "outputs": [],
      "stateMutability": "nonpayable",
      "type": "function"
    },
    {
      "inputs": [
        {
          "internalType": "string",
          "name": "_secret",
          "type": "string"
        }
      ],
      "name": "withdraw",
      "outputs": [],
      "stateMutability": "nonpayable",
      "type": "function"
    },
    {
      "inputs": [],
      "name": "refund",
      "outputs": [],
      "stateMutability": "nonpayable",
      "type": "function"
    }
  ],
  "bytecode": "0x60806040526127106001557f80a251a6ea594109ef28537c1c1e16c05aba0cd7643923acf1ec0389297c5bba60001b60035534801561003d57600080fd5b50604051610adb380380610adb8339818101604052606081101561006057600080fd5b8101908080519060200190929190805190602001909291908051906020019092919050505082600460006101000a81548173ffffffffffffffffffffffffffffffffffffffff021916908373ffffffffffffffffffffffffffffffffffffffff16021790555033600560006101000a81548173ffffffffffffffffffffffffffffffffffffffff021916908373ffffffffffffffffffffffffffffffffffffffff1602179055508060068190555081600760006101000a81548173ffffffffffffffffffffffffffffffffffffffff021916908373ffffffffffffffffffffffffffffffffffffffff16021790555050505061097a806101616000396000f3fe608060405234801561001057600080fd5b50600436106100a95760003560e01c806378e979251161007157806378e97925146101e35780638da5cb5b14610201578063aa8c217c14610235578063b60d428814610253578063d1efd30d1461025d578063fc0c546a146102e0576100a9565b806309bd5a60146100ae5780630d668087146100cc57806331fb67c2146100ea578063590e1ae3146101a557806366d003ac146101af575b600080fd5b6100b6610314565b6040518082815260200191505060405180910390f35b6100d461031a565b6040518082815260200191505060405180910390f35b6101a36004803603602081101561010057600080fd5b810190808035906020019064010000000081111561011d57600080fd5b82018360208201111561012f57600080fd5b8035906020019184600183028401116401000000008311171561015157600080fd5b91908080601f016020809104026020016040519081016040528093929190818152602001838380828437600081840152601f19601f820116905080830192505050505050509192919290505050610320565b005b6101ad610515565b005b6101b7610685565b604051808273ffffffffffffffffffffffffffffffffffffffff16815260200191505060405180910390f35b6101eb6106ab565b6040518082815260200191505060405180910390f35b6102096106b1565b604051808273ffffffffffffffffffffffffffffffffffffffff16815260200191505060405180910390f35b61023d6106d7565b6040518082815260200191505060405180910390f35b61025b6106dd565b005b6102656107d5565b6040518080602001828103825283818151815260200191508051906020019080838360005b838110156102a557808201518184015260208101905061028a565b50505050905090810190601f1680156102d25780820380516001836020036101000a031916815260200191505b509250505060405180910390f35b6102e8610873565b604051808273ffffffffffffffffffffffffffffffffffffffff16815260200191505060405180910390f35b60035481565b60015481565b600354816040516020018082805190602001908083835b6020831061035a5780518252602082019150602081019050602083039250610337565b6001836020036101000a0380198251168184511680821785525050505050509050019150506040516020818303038152906040528051906020012014610408576040517f08c379a000000000000000000000000000000000000000000000000000000000815260040180806020018281038252600d8152602001807f57726f6e6720736563726574210000000000000000000000000000000000000081525060200191505060405180910390fd5b806002908051906020019061041e929190610899565b50600760009054906101000a900473ffffffffffffffffffffffffffffffffffffffff1673ffffffffffffffffffffffffffffffffffffffff1663a9059cbb600460009054906101000a900473ffffffffffffffffffffffffffffffffffffffff166006546040518363ffffffff1660e01b8152600401808373ffffffffffffffffffffffffffffffffffffffff16815260200182815260200192505050602060405180830381600087803b1580156104d657600080fd5b505af11580156104ea573d6000803e3d6000fd5b505050506040513d602081101561050057600080fd5b81019080805190602001909291905050505050565b600154600054014211610590576040517f08c379a000000000000000000000000000000000000000000000000000000000815260040180806020018281038252600a8152602001807f546f6f206561726c79210000000000000000000000000000000000000000000081525060200191505060405180910390fd5b600760009054906101000a900473ffffffffffffffffffffffffffffffffffffffff1673ffffffffffffffffffffffffffffffffffffffff1663a9059cbb600560009054906101000a900473ffffffffffffffffffffffffffffffffffffffff166006546040518363ffffffff1660e01b8152600401808373ffffffffffffffffffffffffffffffffffffffff16815260200182815260200192505050602060405180830381600087803b15801561064757600080fd5b505af115801561065b573d6000803e3d6000fd5b505050506040513d602081101561067157600080fd5b810190808051906020019092919050505050565b600460009054906101000a900473ffffffffffffffffffffffffffffffffffffffff1681565b60005481565b600560009054906101000a900473ffffffffffffffffffffffffffffffffffffffff1681565b60065481565b42600081905550600760009054906101000a900473ffffffffffffffffffffffffffffffffffffffff1673ffffffffffffffffffffffffffffffffffffffff166323b872dd33306006546040518463ffffffff1660e01b8152600401808473ffffffffffffffffffffffffffffffffffffffff1681526020018373ffffffffffffffffffffffffffffffffffffffff1681526020018281526020019350505050602060405180830381600087803b15801561079757600080fd5b505af11580156107ab573d6000803e3d6000fd5b505050506040513d60208110156107c157600080fd5b810190808051906020019092919050505050565b60028054600181600116156101000203166002900480601f01602080910402602001604051908101604052809291908181526020018280546001816001161561010002031660029004801561086b5780601f106108405761010080835404028352916020019161086b565b820191906000526020600020905b81548152906001019060200180831161084e57829003601f168201915b505050505081565b600760009054906101000a900473ffffffffffffffffffffffffffffffffffffffff1681565b828054600181600116156101000203166002900490600052602060002090601f0160209004810192826108cf5760008555610916565b82601f106108e857805160ff1916838001178555610916565b82800160010185558215610916579182015b828111156109155782518255916020019190600101906108fa565b5b5090506109239190610927565b5090565b5b80821115610940576000816000905550600101610928565b509056fea2646970667358221220a28931eea0060533c56444358d4b104ce538e732acb1a03adce38a4cf4e92b9d64736f6c63430007040033",
  "source": "// SPDX-License-Identifier: UNLICENSED\r\n\r\npragma solidity ^0.7.4; \r\n\r\nimport \"@openzeppelin/contracts/token/ERC20/IERC20.sol\";\r\n\r\ncontract HTLC {\r\n  uint public startTime;\r\n  uint public lockTime = 10000 seconds; //stipulated time period for the transaction \r\n  string public secret; //remarkable \r\n  bytes32 public hash = 0x80a251a6ea594109ef28537c1c1e16c05aba0cd7643923acf1ec0389297c5bba; //hash of the secret\r\n  address public recipient;\r\n  address public owner; \r\n  uint public amount; \r\n  IERC20 public token;\r\n\r\n  constructor(address _recipient, address _token, uint _amount) { \r\n    recipient = _recipient;\r\n    owner = msg.sender; \r\n    amount = _amount;\r\n    token = IERC20(_token);\r\n  } \r\n\r\n  // fund the contract with the token and initiate the start time\r\n  function fund() external {\r\n    startTime = block.timestamp;\r\n    token.transferFrom(msg.sender, address(this), amount);\r\n  }\r\n\r\n  // withdraw with the secret\r\n  function withdraw(string memory _secret) external { \r\n    require(keccak256(abi.encodePacked(_secret)) == hash, 'Wrong secret!');\r\n    secret = _secret; // store the secret on the blockchain for Alice\r\n    token.transfer(recipient, amount); \r\n  } \r\n\r\n  // refund if nobody sends the token within the period\r\n  function refund() external { \r\n    require(block.timestamp > startTime + lockTime, 'Too early!');\r\n    token.transfer(owner, amount); \r\n  } \r\n}",
  "sourcePath": "C:\\atomicswap\\contracts\\HTLC.sol",
  "compiler": {
    "name": "solc",
    "version": "0.7.4+commit.3f05b770.Emscripten.clang"
  },
  "schemaVersion": "3.0.23",
  "updatedAt": "2021-09-21T09:12:08.195Z",
  "devdoc": {
    "kind": "dev",
    "methods": {},
    "version": 1
  },
  "userdoc": {
    "kind": "user",
    "methods": {},
    "version": 1
  }
}